:100000000C942A000C943F000C943F000C943F0089
:100010000C943F000C943F000C943F000C943F0064
:100020000C943F000C943F000C943F000C943F0054
:100030000C943F000C943F000C943F000C943F0044
:100040000C943F000C943F000C943F000C943F0034
:100050000C943F0011241FBECFE5D8E0DEBFCDBF1A
:1000600010E0A0E6B0E0EEEAF8E002C005900D92E4
:10007000A639B107D9F70E94F7010C9455040C94E6
:100080000000CF93C82F60E081E00E9470036C2FC6
:10009000661F6627661F86E00E947003C6FB662700
:1000A00060F985E00E947003C5FB662760F984E073
:1000B0000E947003C4FB662760F983E00E9470030E
:1000C00061E082E00E9470038FEC97E00197F1F706
:1000D00000C0000060E082E00E9470038FEC97E0B7
:1000E0000197F1F700C00000C3FB662760F986E0C6
:1000F0000E947003C2FB662760F985E00E947003CE
:10010000C1FB662760F984E00E9470036C2F617068
:1001100083E00E94700361E082E00E9470038FEC34
:1001200097E00197F1F700C0000060E082E00E94D4
:1001300070038FEC97E00197F1F700C00000CF91BA
:100140000895CF93C82F61E081E00E9470036C2F67
:10015000661F6627661F86E00E947003C6FB66273F
:1001600060F985E00E947003C5FB662760F984E0B2
:100170000E947003C4FB662760F983E00E9470034D
:1001800061E082E00E9470038FEC97E00197F1F745
:1001900000C0000060E082E00E9470038FEC97E0F6
:1001A0000197F1F700C00000C3FB662760F986E005
:1001B0000E947003C2FB662760F985E00E9470030D
:1001C000C1FB662760F984E00E9470036C2F6170A8
:1001D00083E00E94700361E082E00E9470038FEC74
:1001E00097E00197F1F700C0000060E082E00E9414
:1001F00070038FEC97E00197F1F700C00000CF91FA
:1002000008952FE788E391E0215080409040E1F786
:1002100000C0000082E00E94410088E20E9441008C
:100220008CE00E94410081E00E9441008FEC97E049
:100230000197F1F700C0000086E00C9441000C9497
:10024000A1000F931F93CF938C01C0E0F801EC0F36
:10025000F11D8081882321F00E94A100CF5FF6CF9D
:10026000CF911F910F9108954F925F926F927F925D
:10027000AF92BF92CF92DF92EF92FF921F93CF93F4
:10028000DF93CDB7DEB764970FB6F894DEBF0FBE2D
:10029000CDBF6B017C016115710581059105B1F43C
:1002A00080E364960FB6F894DEBF0FBECDBFDF913A
:1002B000CF911F91FF90EF90DF90CF90BF90AF90C4
:1002C0007F906F905F904F900C94A10097FF0BC0B0
:1002D000F094E094D094C094C11CD11CE11CF11C9A
:1002E0008DE20E94A10010E09AE0492E512C612C71
:1002F000712CAA24A394B12CAC0EBD1EA10EB11C6E
:10030000C701B601A30192010E942704605DF501B7
:10031000608369017A0181E0810FC114D104E10495
:10032000F10411F0182FE5CFF12EF7FC0DC0E1E03C
:10033000F0E0EC0FFD1FEF0DF11DF7FCFA95808149
:100340000E94A100FA94F1CF64960FB6F894DEBF34
:100350000FBECDBFDF91CF911F91FF90EF90DF9047
:10036000CF90BF90AF907F906F905F904F90089527
:10037000811102C080E803C0813021F480EC860F37
:100380000C94410008950F931F93CF93DF938C013A
:10039000862F880F880F880F805C0E944100E8013B
:1003A000085F1F4F89910E94A100C017D107D1F7A4
:1003B00080E8DF91CF911F910F910C94410087E06D
:1003C0000E9460029C01A4E6B0E00E9446042FEF68
:1003D00033E040E050E00E940504822F08950E941F
:1003E0005D030E94010166E081E00C944A02CF9314
:1003F000DF93CDB7DEB728970FB6F894DEBF0FBEF8
:10040000CDBF0E94EF0188E0E0E6F0E0DE0111964A
:1004100001900D928A95E1F761E0CE0101960E946C
:10042000C30188E690E00E942101EE24EA9433E0C3
:10043000F32E0E94DF01082F87E00E94600224E073
:10044000880F991F2A95E1F7B7010E94F103162F33
:1004500068E080E00E94B801602F70E080E090E0EA
:100460000E94340185E20E941F0181E790E00E9412
:10047000210160E081E00E94B80100E0011728F44A
:1004800081E00E941F010F5FF9CF81E790E00E9499
:100490002101CFCF813041F020F0833039F43F9AF1
:1004A00004C03F983E9802C03F983E9A3D9886B15E
:1004B000887F86B986B16770682B66B9379A0895C8
:1004C00097B1907E97B997B1892B87B9369A3699AB
:1004D000FECF84B195B10895982F969596959695EF
:1004E0008770613009F44DC020F0623009F496C085
:1004F00008959130B1F028F0923019F1933089F1DC
:1005000008954AB321E030E0B90102C0660F771FB9
:100510008A95E2F7CB01942F982B9ABB9BB38095D9
:1005200047C047B321E030E0B90102C0660F771F32
:100530008A95E2F7CB01942F982B97BB98B38095BF
:1005400049C044B321E030E0B90102C0660F771F13
:100550008A95E2F7CB01942F982B94BB95B38095A5
:100560004AC041B321E030E0B90102C0660F771FF5
:100570008A95E2F7CB01942F982B91BB92B380958B
:100580004BC09130C1F028F0923031F19330A9F195
:1005900008954AB321E030E0B90102C0660F771F29
:1005A0008A95E2F7CB018095942F98239ABB9BB351
:1005B00089238BBB089547B321E030E0B90102C025
:1005C000660F771F8A95E2F7CB018095942F9823C9
:1005D00097BB98B389234BC044B321E030E0B90105
:1005E00002C0660F771F8A95E2F7CB018095942FA2
:1005F000982394BB95B389234CC041B321E030E0EC
:10060000B90102C0660F771F8A95E2F7CB0180958A
:10061000942F982391BB92B389234DC09130B9F0A8
:1006200028F0923031F19330B1F108954AB321E0CE
:1006300030E0B90102C0660F771F8A95E2F7CB015F
:10064000962F909594239ABB9BB3892BB2CF47B337
:1006500021E030E0B90102C0660F771F8A95E2F70A
:10066000CB01962F9095942397BB98B3892B88BB89
:10067000089544B321E030E0B90102C0660F771F4E
:100680008A95E2F7CB01962F9095942394BB95B36E
:10069000892B85BB089541B321E030E0B90102C048
:1006A000660F771F8A95E2F7CB01962F90959423DA
:1006B00091BB92B3892B82BB08950F931F93CF9365
:1006C00006E710E0C0E0F80161918F018C2F0E94D5
:1006D0006C02CF5FC032B9F7CF911F910F9108958F
:1006E000982F96959695969587706130C1F59130C3
:1006F00091F028F09230D9F0933029F108954BB35E
:1007000021E030E0B90102C0660F771F8A95E2F759
:10071000CB01842B3AC048B321E030E0B90102C0DC
:10072000660F771F8A95E2F7CB01842B3CC045B357
:1007300021E030E0B90102C0660F771F8A95E2F729
:10074000CB01842B3EC042B321E030E0B90102C0AE
:10075000660F771F8A95E2F7CB01842B40C06111A9
:100760003FC09130A1F028F09230F9F0933059F168
:1007700008954BB321E030E0B90102C0660F771F46
:100780008A95E2F7CB01809584238BBB089548B30B
:1007900021E030E0B90102C0660F771F8A95E2F7C9
:1007A000CB018095842388BB089545B321E030E0D8
:1007B000B90102C0660F771F8A95E2F7CB018095D9
:1007C000842385BB089542B321E030E0B90102C023
:1007D000660F771F8A95E2F7CB018095842382BB51
:1007E0000895AA1BBB1B51E107C0AA1FBB1FA61778
:1007F000B70710F0A61BB70B881F991F5A95A9F7CA
:1008000080959095BC01CD010895A1E21A2EAA1BF6
:10081000BB1BFD010DC0AA1FBB1FEE1FFF1FA217B0
:10082000B307E407F50720F0A21BB30BE40BF50BAD
:10083000661F771F881F991F1A9469F76095709536
:10084000809590959B01AC01BD01CF010895052EC7
:1008500097FB1EF400940E943E0457FD07D00E94AF
:10086000050407FC03D04EF40C943E0450954095CB
:10087000309521953F4F4F4F5F4F0895909580954C
:10088000709561957F4F8F4F9F4F0895A29FB00144
:10089000B39FC001A39F700D811D1124911DB29FB4
:0E08A000700D811D1124911D0895F894FFCF55
:1008AE00FFFFFFFFFFFFFFFF566F6C756D653A2070
:1008BE0000202020200001000000000000010000A8
:1008CE000000020202020000000000000000000012
:0608DE0000000000000014
:00000001FF
