:100000000C942A000C9447000C9447000C94470071
:100010000C9447000C9447000C9447000C94470044
:100020000C9447000C9447000C9447000C94470034
:100030000C9447000C9447000C9447000C94470024
:100040000C9447000C9447000C9447000C94470014
:100050000C94470011241FBECFE5D8E0DEBFCDBF12
:1000600010E0A0E6B0E0E2EBF4E002C005900D92F3
:10007000A436B107D9F720E0A4E6B0E001C01D9294
:10008000A536B207E1F70E94B2000C9457020C9417
:100090000000009769F0FC0180818F73282F30E009
:1000A000203231052CF462E00E94C80081E00895FE
:1000B00080E008950F931F93CF93DF93FC01892B6A
:1000C00099F080818F73282F30E02032310564F45D
:1000D0008B01EF010E943A02F8018083988180FB36
:1000E00096F9988381E001C080E0DF91CF911F9164
:1000F0000F910895CF93DF93FC01892B69F08081E4
:10010000803250F4EF0160E00E94C80060E0888116
:100110000E94B90181E001C080E0DF91CF91089594
:10012000009749F0FC018081803228F461E00E9450
:10013000B90181E0089580E00895009749F0FC013D
:100140008081803228F460E00E94B90181E0089546
:1001500080E0089580E690E00E94490081E690E00A
:100160000C947A000E94AA0064E670E080E690E0B9
:100170000E945A0080916400811105C081E690E0E0
:100180000E949000F1CF81E690E00E949D00ECCFAC
:10019000982F9695969596958770613009F44DC085
:1001A00020F0623009F496C008959130B1F028F043
:1001B000923019F1933089F108954AB321E030E08B
:1001C000B90102C0660F771F8A95E2F7CB01942F21
:1001D000982B9ABB9BB3809547C047B321E030E092
:1001E000B90102C0660F771F8A95E2F7CB01942F01
:1001F000982B97BB98B3809549C044B321E030E079
:10020000B90102C0660F771F8A95E2F7CB01942FE0
:10021000982B94BB95B380954AC041B321E030E060
:10022000B90102C0660F771F8A95E2F7CB01942FC0
:10023000982B91BB92B380954BC09130C1F028F0C0
:10024000923031F19330A9F108954AB321E030E0C2
:10025000B90102C0660F771F8A95E2F7CB0180953E
:10026000942F98239ABB9BB389238BBB089547B3E4
:1002700021E030E0B90102C0660F771F8A95E2F7EE
:10028000CB018095942F982397BB98B389234BC0BB
:1002900044B321E030E0B90102C0660F771F8A95B0
:1002A000E2F7CB018095942F982394BB95B38923D3
:1002B0004CC041B321E030E0B90102C0660F771FA6
:1002C0008A95E2F7CB018095942F982391BB92B346
:1002D00089234DC09130B9F028F0923031F193303C
:1002E000B1F108954AB321E030E0B90102C0660FD0
:1002F000771F8A95E2F7CB01962F909594239ABBAE
:100300009BB3892BB2CF47B321E030E0B90102C0E3
:10031000660F771F8A95E2F7CB01962F909594236D
:1003200097BB98B3892B88BB089544B321E030E094
:10033000B90102C0660F771F8A95E2F7CB01962FAD
:100340009095942394BB95B3892B85BB089541B3B5
:1003500021E030E0B90102C0660F771F8A95E2F70D
:10036000CB01962F9095942391BB92B3892B82BB9E
:100370000895982F96959695969587706130C1F55A
:10038000913091F028F09230D9F0933029F108950E
:100390004BB321E030E0B90102C0660F771F8A95A8
:1003A000E2F7CB01842B3AC048B321E030E0B90139
:1003B00002C0660F771F8A95E2F7CB01842B3CC001
:1003C00045B321E030E0B90102C0660F771F8A957E
:1003D000E2F7CB01842B3EC042B321E030E0B9010B
:1003E00002C0660F771F8A95E2F7CB01842B40C0CD
:1003F00061113FC09130A1F028F09230F9F09330B4
:1004000059F108954BB321E030E0B90102C0660F05
:10041000771F8A95E2F7CB01809584238BBB0895E3
:1004200048B321E030E0B90102C0660F771F8A951A
:10043000E2F7CB018095842388BB089545B321E082
:1004400030E0B90102C0660F771F8A95E2F7CB0151
:100450008095842385BB089542B321E030E0B90143
:1004600002C0660F771F8A95E2F7CB01809584233F
:1004700082BB0895282F27708695869586958130B2
:1004800049F030F0823041F0833079F480B305C018
:1004900089B303C086B301C083B390E002C09595D1
:1004A00087952A95E2F78170089580E00895F89481
:0204B000FFCF7C
:0404B20058100000DE
:00000001FF
