:100000000C942A000C94C4030C94F4030C94EA039B
:100010000C9447000C9447000C9447000C94470044
:100020000C9447000C9447000C9447000C94470034
:100030000C9447000C9447000C9447000C94470024
:100040000C9447000C9447000C9447000C94470014
:100050000C94470011241FBECFE5D8E0DEBFCDBF12
:1000600010E0A0E6B0E0E2E8F8E002C005900D92F2
:10007000AC38B107D9F720E0ACE8B0E001C01D9280
:10008000AC38B207E1F70E94D9010C943F040C94FC
:100090000000CF93C82F60E081E00E9402036C2F24
:1000A000661F6627661F86E00E940203C6FB66275E
:1000B00060F985E00E940203C5FB662760F984E0D1
:1000C0000E940203C4FB662760F983E00E940203DA
:1000D00061E082E00E9402038FEC97E00197F1F764
:1000E00000C0000060E082E00E9402038FEC97E015
:1000F0000197F1F700C00000C3FB662760F986E0B6
:100100000E940203C2FB662760F985E00E94020399
:10011000C1FB662760F984E00E9402036C2F6170C6
:1001200083E00E94020361E082E00E9402038FEC00
:1001300097E00197F1F700C0000060E082E00E94C4
:1001400002038FEC97E00197F1F700C00000CF9118
:100150000895CF93C82F61E081E00E9402036C2FC5
:10016000661F6627661F86E00E940203C6FB66279D
:1001700060F985E00E940203C5FB662760F984E010
:100180000E940203C4FB662760F983E00E94020319
:1001900061E082E00E9402038FEC97E00197F1F7A3
:1001A00000C0000060E082E00E9402038FEC97E054
:1001B0000197F1F700C00000C3FB662760F986E0F5
:1001C0000E940203C2FB662760F985E00E940203D9
:1001D000C1FB662760F984E00E9402036C2F617006
:1001E00083E00E94020361E082E00E9402038FEC40
:1001F00097E00197F1F700C0000060E082E00E9404
:1002000002038FEC97E00197F1F700C00000CF9157
:1002100008952FE788E391E0215080409040E1F776
:1002200000C0000082E00E94490088E20E9449006C
:100230008CE00E94490081E00E9449008FEC97E029
:100240000197F1F700C0000086E00C9449000F937D
:100250001F93CF938C01C0E0F801EC0FF11D80815A
:10026000882321F00E94A900CF5FF6CFCF911F9184
:100270000F9108954F925F926F927F92AF92BF92CB
:10028000CF92DF92EF92FF921F93CF93DF93CDB780
:10029000DEB764970FB6F894DEBF0FBECDBF6B011B
:1002A0007C016115710581059105B1F480E36496C7
:1002B0000FB6F894DEBF0FBECDBFDF91CF911F9177
:1002C000FF90EF90DF90CF90BF90AF907F906F90B6
:1002D0005F904F900C94A90097FF0BC0F094E094AE
:1002E000D094C094C11CD11CE11CF11C8DE20E9471
:1002F000A90010E09AE0492E512C612C712CAA24FF
:10030000A394B12CAC0EBD1EA10EB11CC701B60149
:10031000A30192010E942004605DF50160836901E0
:100320007A0181E0810FC114D104E104F10411F0DC
:10033000182FE5CFF12EF7FC0DC0E1E0F0E0EC0F57
:10034000FD1FEF0DF11DF7FCFA9580810E94A900B9
:10035000FA94F1CF64960FB6F894DEBF0FBECDBF0E
:10036000DF91CF911F91FF90EF90DF90CF90BF90E2
:10037000AF907F906F905F904F900895811102C071
:1003800080E803C0813021F480EC860F0C94490092
:100390000895009741F0FC018081803220F40E9492
:1003A000830381E0089580E008950E94EF020C9499
:1003B00009010E94D50178940E94B80383E00E944D
:1003C000BC0382E690E00E942701C0E060E081E08B
:1003D0000E94BE016C2F70E080E090E00E943A0124
:1003E000CF5FCA3009F4C0E02FEF89E698E12150D1
:1003F00080409040E1F700C00000E8CF982F96952C
:10040000969596958770613009F44DC020F0623062
:1004100009F496C008959130B1F028F0923019F1A6
:10042000933089F108954AB321E030E0B90102C068
:10043000660F771F8A95E2F7CB01942F982B9ABB12
:100440009BB3809547C047B321E030E0B90102C0BB
:10045000660F771F8A95E2F7CB01942F982B97BBF5
:1004600098B3809549C044B321E030E0B90102C09F
:10047000660F771F8A95E2F7CB01942F982B94BBD8
:1004800095B380954AC041B321E030E0B90102C084
:10049000660F771F8A95E2F7CB01942F982B91BBBB
:1004A00092B380954BC09130C1F028F0923031F179
:1004B0009330A9F108954AB321E030E0B90102C0B8
:1004C000660F771F8A95E2F7CB018095942F9823CA
:1004D0009ABB9BB389238BBB089547B321E030E0DF
:1004E000B90102C0660F771F8A95E2F7CB018095AC
:1004F000942F982397BB98B389234BC044B321E032
:1005000030E0B90102C0660F771F8A95E2F7CB0190
:100510008095942F982394BB95B389234CC041B305
:1005200021E030E0B90102C0660F771F8A95E2F73B
:10053000CB018095942F982391BB92B389234DC012
:100540009130B9F028F0923031F19330B1F1089543
:100550004AB321E030E0B90102C0660F771F8A95E7
:10056000E2F7CB01962F909594239ABB9BB3892BEE
:10057000B2CF47B321E030E0B90102C0660F771F68
:100580008A95E2F7CB01962F9095942397BB98B369
:10059000892B88BB089544B321E030E0B90102C043
:1005A000660F771F8A95E2F7CB01962F90959423DB
:1005B00094BB95B3892B85BB089541B321E030E00E
:1005C000B90102C0660F771F8A95E2F7CB01962F1B
:1005D0009095942391BB92B3892B82BB08950F937E
:1005E0001F93CF930CE610E0C0E0F80161918F01FA
:1005F0008C2F0E94FE01CF5FC032B9F7CF911F91BF
:100600000F910895982F96959695969587706130DD
:10061000C1F5913091F028F09230D9F0933029F162
:1006200008954BB321E030E0B90102C0660F771F97
:100630008A95E2F7CB01842B3AC048B321E030E041
:10064000B90102C0660F771F8A95E2F7CB01842BB0
:100650003CC045B321E030E0B90102C0660F771F0E
:100660008A95E2F7CB01842B3EC042B321E030E013
:10067000B90102C0660F771F8A95E2F7CB01842B80
:1006800040C061113FC09130A1F028F09230F9F0E4
:10069000933059F108954BB321E030E0B90102C025
:1006A000660F771F8A95E2F7CB01809584238BBB79
:1006B000089548B321E030E0B90102C0660F771F0A
:1006C0008A95E2F7CB018095842388BB089545B3D2
:1006D00021E030E0B90102C0660F771F8A95E2F78A
:1006E000CB018095842385BB089542B321E030E09F
:1006F000B90102C0660F771F8A95E2F7CB0180959A
:10070000842382BB0895282F277086958695869529
:10071000813081F028F08230B9F08330F9F008950B
:100720003BB381E090E001C0880F2A95EAF7832768
:100730008BBB089538B381E090E001C0880F2A9503
:10074000EAF7832788BB089535B381E090E001C0C4
:10075000880F2A95EAF7832785BB089532B381E095
:1007600090E001C0880F2A95EAF7832782BB08959D
:100770008BB780648BBF089595B79C7F95BF95B765
:100780008370982B95BF08951F920F920FB60F920A
:1007900011242F933F934F935F936F937F938F9386
:1007A0009F93AF93BF93EF93FF9380E690E00E94F7
:1007B000C901FF91EF91BF91AF919F918F917F916F
:1007C0006F915F914F913F912F910F900FBE0F90BE
:1007D0001F9018951F920F920FB60F9211240F9031
:1007E0000FBE0F901F9018951F920F920FB60F9289
:1007F00011240F900FBE0F901F901895A1E21A2E92
:10080000AA1BBB1BFD010DC0AA1FBB1FEE1FFF1FB4
:10081000A217B307E407F50720F0A21BB30BE40B04
:10082000F50B661F771F881F991F1A9469F760954B
:100830007095809590959B01AC01BD01CF01089505
:10084000052E97FB1EF400940E94370457FD07D035
:100850000E94FE0307FC03D04EF40C94370450951D
:100860004095309521953F4F4F4F5F4F089590959C
:100870008095709561957F4F8F4F9F4F0895F894A5
:02088000FFCFA8
:100882001000496E74657272757074000100000088
:10089200000000010000000002020202000000004D
:0C08A20000000000000002020000000046
:00000001FF
