:100000000C942A000C943F000C943F000C943F0089
:100010000C943F000C943F000C943F000C943F0064
:100020000C943F000C943F000C943F000C943F0054
:100030000C943F000C943F000C943F000C943F0044
:100040000C943F000C943F000C943F000C943F0034
:100050000C943F0011241FBECFE5D8E0DEBFCDBF1A
:1000600010E0A0E6B0E0EAE7F4E002C005900D92EF
:10007000A039B107D9F70E94C1000C943B020C943F
:100080000000CF93DF93FC01892B69F080818032DF
:1000900050F4EF0161E00E94C90060E088810E9495
:1000A000BA0181E001C080E0DF91CF91089500970F
:1000B00049F0FC018081803228F461E00E94BA019D
:1000C00081E0089580E00895009749F0FC01808167
:1000D000803228F460E00E94BA0181E0089580E057
:1000E00008958F929F92AF92BF92CF92DF92EF923C
:1000F000FF920F931F93CF93DF937C01B62ED72EE1
:10010000C42E8C01C0E0CC1539F0C8010E9441001A
:10011000CF5F0E5F1F4FF7CFCB2DDD2DD12C4701C9
:1001200020E1820E911CDC14F9F087015E01F501DB
:1001300081915F01813021F4C8010E94570003C002
:10014000C8010E9464000E5F1F4F0815190579F75A
:10015000FFE72AE186E0F15020408040E1F700C04F
:100160000000D3942896DFCFDF91CF911F910F919C
:10017000FF90EF90DF90CF90BF90AF909F908F90C7
:10018000089548E060E670E080E890E00E94710029
:10019000F8CF982F9695969596958770613009F4CB
:1001A0004DC020F0623009F496C008959130B1F04E
:1001B00028F0923019F1933089F108954AB321E083
:1001C00030E0B90102C0660F771F8A95E2F7CB01D4
:1001D000942F982B9ABB9BB3809547C047B321E0DF
:1001E00030E0B90102C0660F771F8A95E2F7CB01B4
:1001F000942F982B97BB98B3809549C044B321E0C6
:1002000030E0B90102C0660F771F8A95E2F7CB0193
:10021000942F982B94BB95B380954AC041B321E0AD
:1002200030E0B90102C0660F771F8A95E2F7CB0173
:10023000942F982B91BB92B380954BC09130C1F015
:1002400028F0923031F19330A9F108954AB321E0BA
:1002500030E0B90102C0660F771F8A95E2F7CB0143
:100260008095942F98239ABB9BB389238BBB0895C9
:1002700047B321E030E0B90102C0660F771F8A95CD
:10028000E2F7CB018095942F982397BB98B38923ED
:100290004BC044B321E030E0B90102C0660F771FC4
:1002A0008A95E2F7CB018095942F982394BB95B360
:1002B00089234CC041B321E030E0B90102C0660F90
:1002C000771F8A95E2F7CB018095942F982391BBF5
:1002D00092B389234DC09130B9F028F0923031F1BA
:1002E0009330B1F108954AB321E030E0B90102C082
:1002F000660F771F8A95E2F7CB01962F909594238E
:100300009ABB9BB3892BB2CF47B321E030E0B90150
:1003100002C0660F771F8A95E2F7CB01962F909562
:10032000942397BB98B3892B88BB089544B321E0ED
:1003300030E0B90102C0660F771F8A95E2F7CB0162
:10034000962F9095942394BB95B3892B85BB0895E4
:1003500041B321E030E0B90102C0660F771F8A95F2
:10036000E2F7CB01962F9095942391BB92B3892B02
:1003700082BB0895982F96959695969587706130D3
:10038000C1F5913091F028F09230D9F0933029F1F5
:1003900008954BB321E030E0B90102C0660F771F2A
:1003A0008A95E2F7CB01842B3AC048B321E030E0D4
:1003B000B90102C0660F771F8A95E2F7CB01842B43
:1003C0003CC045B321E030E0B90102C0660F771FA1
:1003D0008A95E2F7CB01842B3EC042B321E030E0A6
:1003E000B90102C0660F771F8A95E2F7CB01842B13
:1003F00040C061113FC09130A1F028F09230F9F077
:10040000933059F108954BB321E030E0B90102C0B7
:10041000660F771F8A95E2F7CB01809584238BBB0B
:10042000089548B321E030E0B90102C0660F771F9C
:100430008A95E2F7CB018095842388BB089545B364
:1004400021E030E0B90102C0660F771F8A95E2F71C
:10045000CB018095842385BB089542B321E030E031
:10046000B90102C0660F771F8A95E2F7CB0180952C
:0A047000842382BB0895F894FFCFA7
:10047A00010000000000000101010000000001016C
:10048A000101010000010101010101010101010154
:10049A0010001100120013001400150016001700B6
:00000001FF
