:100000000C942A000C9447000C9447000C94470071
:100010000C9447000C9447000C9447000C94470044
:100020000C9447000C9447000C9447000C94470034
:100030000C9447000C9447000C9447000C94470024
:100040000C9447000C9447000C9447000C94470014
:100050000C94470011241FBECFE5D8E0DEBFCDBF12
:1000600011E0A0E6B0E0E0E6F2E102C005900D92FA
:10007000A437B107D9F721E0A4E7B1E001C01D9290
:10008000AB37B207E1F70E940C070C942E090C94D1
:100090000000009769F0FC0180818F73282F30E009
:1000A000203231052CF462E00E941D0781E00895A2
:1000B00080E008950F931F93CF93DF93FC01892B6A
:1000C00099F080818F73282F30E02032310564F45D
:1000D0008B01EF010E94A208F8018083988180FBC8
:1000E00096F9988381E001C080E0DF91CF911F9164
:1000F0000F910895DF92EF92FF920F931F93CF938A
:10010000DF9361E088E00E94210861E089E00E94BD
:10011000210861E08AE00E94210861E08BE00E94F2
:10012000210894E6E92E90E0F92EC8E0DEE460E0D4
:100130008C2F0E94210800E010E08CE0D82ED00E19
:100140008D2D0E94A208811109C0F701E00FF11F57
:10015000D0818D2D0E94A2088823D9F30F5F1F4FF5
:100160000430110551F761E08C2F0E942108CF5F08
:1001700084E0E80EF11CCC30D1F68D2FDF91CF91C9
:100180001F910F91FF90EF90DF900895CF93C82FAC
:1001900060E081E00E9421086C2F661F6627661FC1
:1001A00086E00E942108C6FB662760F985E00E9470
:1001B0002108C5FB662760F984E00E942108C4FB82
:1001C000662760F983E00E94210861E082E00E94D6
:1001D00021088FEC97E00197F1F700C0000060E084
:1001E00082E00E9421088FEC97E00197F1F700C0B0
:1001F0000000C3FB662760F986E00E942108C2FB6D
:10020000662760F985E00E942108C1FB662760F936
:1002100084E00E9421086C2F617083E00E94210815
:1002200061E082E00E9421088FEC97E00197F1F7EE
:1002300000C0000060E082E00E9421088FEC97E09F
:100240000197F1F700C00000CF910895CF93C82F18
:1002500061E081E00E9421086C2F661F6627661FFF
:1002600086E00E942108C6FB662760F985E00E94AF
:100270002108C5FB662760F984E00E942108C4FBC1
:10028000662760F983E00E94210861E082E00E9415
:1002900021088FEC97E00197F1F700C0000060E0C3
:1002A00082E00E9421088FEC97E00197F1F700C0EF
:1002B0000000C3FB662760F986E00E942108C2FBAC
:1002C000662760F985E00E942108C1FB662760F976
:1002D00084E00E9421086C2F617083E00E94210855
:1002E00061E082E00E9421088FEC97E00197F1F72E
:1002F00000C0000060E082E00E9421088FEC97E0DF
:100300000197F1F700C00000CF9108952FE788E32F
:1003100091E0215080409040E1F700C0000082E071
:100320000E94C60088E20E94C6008CE00E94C600BF
:1003300081E00E94C6008FEC97E00197F1F700C0C2
:10034000000086E00C94C6000C9426010F931F93C6
:10035000CF938C01C0E0F801EC0FF11D8081882360
:1003600021F00E942601CF5FF6CFCF911F910F9110
:1003700008954F925F926F927F92AF92BF92CF9209
:10038000DF92EF92FF921F93CF93DF93CDB7DEB74B
:1003900064970FB6F894DEBF0FBECDBF6B017C0132
:1003A0006115710581059105B1F480E364960FB67E
:1003B000F894DEBF0FBECDBFDF91CF911F91FF90AC
:1003C000EF90DF90CF90BF90AF907F906F905F9055
:1003D0004F900C94260197FF0BC0F094E094D094BA
:1003E000C094C11CD11CE11CF11C8DE20E942601AD
:1003F00010E09AE0492E512C612C712CAA24A39470
:10040000B12CAC0EBD1EA10EB11CC701B601A301DB
:1004100092010E94F508605DF501608369017A012F
:1004200081E0810FC114D104E104F10411F0182F0F
:10043000E5CFF12EF7FC0DC0E1E0F0E0EC0FFD1F81
:10044000EF0DF11DF7FCFA9580810E942601FA94C8
:10045000F1CF64960FB6F894DEBF0FBECDBFDF912B
:10046000CF911F91FF90EF90DF90CF90BF90AF9012
:100470007F906F905F904F900895EF92FF921F933F
:10048000CF93DF93C7E0D0E010E0E82EF12CC70156
:100490000C2E02C0959587950A94E2F780FF05C05F
:1004A00081E30E94260111E007C0113021F480E3AE
:1004B0000E94260101C010E0219748F7DF91CF91FB
:1004C0001F91FF90EF900895CF93C82F82958F7062
:1004D000CF708A3010F4805D01C0895C0E942601D3
:1004E000CA3010F480E301C087E38C0FCF910C94E5
:1004F0002601DC01FC0101900020E9F73197E81B9F
:10050000F90B8E0F911DFC0121E060E0EA17FB075B
:10051000C1F0929180ED890F8A3010F4982F0BC0B2
:100520008FEB890F863010F4975305C08FE9890F40
:10053000863060F79652929F600D11242295207F9D
:10054000E5CF70E080E090E00C94B901FC01DC01A3
:100550000D900020E9F71197A81BB90B8A0F911D88
:10056000DC0121E080E0AE17BF07C9F09E9130EDBD
:10057000390F3A3010F4932F0CC03081313498F396
:10058000973410F4975305C0313668F3973658F70F
:100590009652929F800D11242295207FE4CF0C94D7
:1005A0003D028F929F92AF92BF92CF92DF92EF92D5
:1005B000FF92CF93C1E0C12CD12C76012AE0822E8C
:1005C000912CA12CB12C6115710581059105C9F003
:1005D000A50194010E94D308EC2FF0E0E69FD00122
:1005E000E79FB00DF69FB00D1124CD01BB0FAA0BF4
:1005F000BB0BC80ED91EEA1EFB1EB901CA01CC0FE7
:10060000E2CFC701B601CF91FF90EF90DF90CF907E
:10061000BF90AF909F908F900C94B90141E020E083
:1006200030E0EAE0F0E0009769F0BF010E94BF0807
:10063000489FD001499FB00D11242A0F3B1FCB01C9
:10064000440FF1CF822F0C946402811102C080E824
:1006500003C0813021F480EC860F0C94C60008950D
:1006600081E00C94C600CF93DF93EA010E9425033A
:10067000CE01DF91CF910C94A6010E940E080E943A
:10068000860183E690E00E94490082E690E00E94A5
:10069000490081E690E00E94490080E690E00C94D9
:1006A000490044E750E062E080E00E9433032FEF0E
:1006B00089E698E1215080409040E1F700C00000B9
:1006C00041E850E062E081E00E9433032FEF89E6C9
:1006D00098E1215080409040E1F700C000000E9466
:1006E00030032FEF89E698E1215080409040E1F7F8
:1006F00000C000004DE850E065E080E00E94330358
:100700002FEF89E698E1215080409040E1F700C04A
:10071000000042E950E062E081E00E9433032FEFE5
:1007200089E698E1215080409040E1F700C0000048
:100730000E9430032FEF89E698E1215080409040DD
:10074000E1F700C000004FE950E063E080E00E9464
:1007500033032FEF89E698E1215080409040E1F784
:1007600000C0000049EA50E060E081E00E943303ED
:100770002FEF89E698E1215080409040E1F700C0DA
:1007800000000E94300349EB50E061E080E00E94ED
:1007900033032FEF89E698E1215080409040E1F744
:1007A00000C0000048EC50E060E081E00E943303AC
:1007B0002FEF8EE994E2215080409040E1F700C095
:1007C00000000E9430032FEF89E698E1215080401D
:1007D0009040E1F700C0000048ED50E062E080E0AA
:1007E0000E9433032FEF89E698E12150804090402A
:1007F000E1F700C0000048EC50E060E081E00E94BA
:1008000033032FEF8EE994E2215080409040E1F7CE
:1008100000C000000E9430032FEF89E698E12150CC
:1008200080409040E1F700C0000045EE50E060E0FD
:1008300080E00E94330345EF50E063E081E00C94D8
:100840003303CF93C0E080917401813009F474C008
:1008500068E771E083E690E00E945A0067E771E084
:1008600082E690E00E945A0066E771E081E690E03F
:100870000E945A00909178018091740191111CC0DE
:1008800081111AC00E9430038EEF90E00E94A601F1
:100890004FE051E060E081E00E94330381E080930B
:1008A00074012FEF89E698E1215080409040E1F7F4
:1008B00000C00000C1E0C7CF9091770191111CC02A
:1008C00081111AC00E9430038EEF90E00E94A601B1
:1008D00048E151E060E081E00E94330381E08093D1
:1008E00074012FEF89E698E1215080409040E1F7B4
:1008F00000C00000C2E0A7CF909176019111A3CF74
:100900008111A1CF0E9430038EEF90E00E94A601DA
:1009100045E251E060E081E00E94330381E0809392
:1009200074012FEF89E698E1215080409040E1F773
:1009300000C00000C3E087CF8C2FCF910895CF93E4
:10094000DF93C0E0D2E080917401823009F472C07C
:1009500068E771E083E690E00E945A0067E771E083
:1009600082E690E00E945A0066E771E081E690E03E
:100970000E945A00909178018091740191111BC0DE
:100980008130C9F40E9430038DE291E00E94A601FB
:100990004FE051E060E081E00E943303D0937401A6
:1009A0002FEF89E698E1215080409040E1F700C0A8
:1009B0000000C4E0C8CF9091770191111BC0813035
:1009C000C9F40E9430038DE291E00E94A60148E143
:1009D00051E060E081E00E943303D09374012FEF77
:1009E00089E698E1215080409040E1F700C0000086
:1009F000C5E0A9CF909176019111A5CF813009F082
:100A0000A2CF0E9430038DE291E00E94A60145E250
:100A100051E060E081E00E943303D09374012FEF36
:100A200089E698E1215080409040E1F700C0000045
:100A3000C6E089CF8C2FDF91CF910895CF92DF92BE
:100A4000EF92FF920F931F93CF93DF9300D0CDB718
:100A5000DEB70E94300380E390E09A83898380911F
:100A60007901823009F4B2C0833009F42CC181309D
:100A700009F0C7C180917A01853009F052C04CE37A
:100A800051E060E080E00E94330342E451E060E026
:100A900081E00E94330364E080E00E942503C12CC2
:100AA000D12C760113E080917401833009F4A9C13F
:100AB0000E947A00E82F80ED8E0F8A30B0F4AAE011
:100AC000B0E0A70196010E941409CE2ED12C20E39C
:100AD000C21AD1080D2C000CEE08FF08C60ED71E56
:100AE000E81EF91E8E2F0E94A40165E771E080E6E2
:100AF00090E00E945A00809175018111D4CF64E08A
:100B000081E00E94250388E491E00E94A60166E04E
:100B100081E00E9425038C2D0E94640210937401D1
:100B2000C2CF863009F06DC14CE351E060E080E057
:100B30000E9433034BE451E060E081E00E94330304
:100B400064E080E00E942503C12CD12C760113E0E3
:100B500080917401833009F454C10E947A00E82F17
:100B600080ED8E0F8A30B0F4AAE0B0E0A7019601C4
:100B70000E941409CE2ED12C20E3C21AD1080D2CCC
:100B8000000CEE08FF08C60ED71EE81EF91E8E2FB9
:100B90000E94A40165E771E080E690E00E945A009F
:100BA000809175018111D4CF64E081E00E9425031A
:100BB00081E591E00E94A60166E081E00E942503A4
:100BC0008C2D0E943D0210937401C2CF80917A0156
:100BD0008430D1F542E451E060E080E00E943303CC
:100BE0004CE351E060E081E00E94330364E080E088
:100BF0000E94250310E003E080917401833009F422
:100C000000C10E947A008E3451F0E1E0F0E0EC0F78
:100C1000FD1FE10FF11D80830E94A4011F5F65E7A6
:100C200071E080E690E00E945A0080917501811188
:100C3000E3CF64E081E00E942503CE0101960E948B
:100C4000790200937401D8CF863009F0DAC042E40B
:100C500051E060E080E00E9433034BE451E060E04B
:100C600081E00E94330364E080E00E94250310E0ED
:100C700003E080917401833009F4C3C00E947A00BC
:100C80008E3451F0E1E0F0E0EC0FFD1FE10FF11DBB
:100C900080830E94A4011F5F65E771E080E690E019
:100CA0000E945A00809175018111E3CF41E551E026
:100CB00064E081E00E943303CE0101960E94A60207
:100CC00000937401D6CF80917A01843009F04BC033
:100CD0004BE451E060E080E00E9433034CE351E0DC
:100CE00060E081E00E94330364E080E00E9425031D
:100CF000C12CD12C760113E080917401833009F46A
:100D000080C00E947A00E82F80ED8E0F8230B0F410
:100D1000AAE0B0E0A70196010E941409CE2ED12CC2
:100D200020E3C21AD1080D2C000CEE08FF08C60EF5
:100D3000D71EE81EF91E8E2F0E94A40165E771E000
:100D400080E690E00E945A00809175018111D4CF15
:100D500064E081E00E942503C701B6010E94D10230
:100D600010937401C9CF853009F04BC04BE451E0BA
:100D700060E080E00E94330342E451E060E081E003
:100D80000E94330364E080E00E942503C12CD12C33
:100D9000760113E080917401833099F10E947A000A
:100DA000E82F80ED8E0F8230B0F4AAE0B0E0A7010A
:100DB00096010E941409CE2ED12C20E3C21AD1082C
:100DC0000D2C000CEE08FF08C60ED71EE81EF91EFB
:100DD0008E2F0E94A40165E771E080E690E00E94FA
:100DE0005A00809175018111D5CF48E451E064E04B
:100DF00081E00E943303C6010E940E031093740128
:100E0000C9CF0F900F90DF91CF911F910F91FF905D
:100E1000EF90DF90CF9008950E943D030E94510310
:100E20000E942104809379010E949F0480937A019B
:100E30000E941E0510927401F3CF982F96959695F7
:100E400096958770613009F44DC020F0623009F446
:100E500096C008959130B1F028F0923019F1933096
:100E600089F108954AB321E030E0B90102C0660F6C
:100E7000771F8A95E2F7CB01942F982B9ABB9BB3EF
:100E8000809547C047B321E030E0B90102C0660F4A
:100E9000771F8A95E2F7CB01942F982B97BB98B3D5
:100EA000809549C044B321E030E0B90102C0660F2B
:100EB000771F8A95E2F7CB01942F982B94BB95B3BB
:100EC00080954AC041B321E030E0B90102C0660F0D
:100ED000771F8A95E2F7CB01942F982B91BB92B3A1
:100EE00080954BC09130C1F028F0923031F19330B1
:100EF000A9F108954AB321E030E0B90102C0660FBC
:100F0000771F8A95E2F7CB018095942F98239ABB9F
:100F10009BB389238BBB089547B321E030E0B9012F
:100F200002C0660F771F8A95E2F7CB018095942F58
:100F3000982397BB98B389234BC044B321E030E09A
:100F4000B90102C0660F771F8A95E2F7CB01809541
:100F5000942F982394BB95B389234CC041B321E0CF
:100F600030E0B90102C0660F771F8A95E2F7CB0126
:100F70008095942F982391BB92B389234DC09130D3
:100F8000B9F028F0923031F19330B1F108954AB3BD
:100F900021E030E0B90102C0660F771F8A95E2F7C1
:100FA000CB01962F909594239ABB9BB3892BB2CFFC
:100FB00047B321E030E0B90102C0660F771F8A9580
:100FC000E2F7CB01962F9095942397BB98B3892B8A
:100FD00088BB089544B321E030E0B90102C0660F38
:100FE000771F8A95E2F7CB01962F9095942394BBB7
:100FF00095B3892B85BB089541B321E030E0B90159
:1010000002C0660F771F8A95E2F7CB01962F909565
:10101000942391BB92B3892B82BB08950F931F93A6
:10102000CF9304E511E0C0E0F80161918F018C2FAE
:101030000E941D07CF5FC032B9F7CF911F910F916A
:101040000895982F96959695969587706130C1F57D
:10105000913091F028F09230D9F0933029F1089531
:101060004BB321E030E0B90102C0660F771F8A95CB
:10107000E2F7CB01842B3AC048B321E030E0B9015C
:1010800002C0660F771F8A95E2F7CB01842B3CC024
:1010900045B321E030E0B90102C0660F771F8A95A1
:1010A000E2F7CB01842B3EC042B321E030E0B9012E
:1010B00002C0660F771F8A95E2F7CB01842B40C0F0
:1010C00061113FC09130A1F028F09230F9F09330D7
:1010D00059F108954BB321E030E0B90102C0660F29
:1010E000771F8A95E2F7CB01809584238BBB089507
:1010F00048B321E030E0B90102C0660F771F8A953E
:10110000E2F7CB018095842388BB089545B321E0A5
:1011100030E0B90102C0660F771F8A95E2F7CB0174
:101120008095842385BB089542B321E030E0B90166
:1011300002C0660F771F8A95E2F7CB018095842362
:1011400082BB0895282F27708695869586958130D5
:1011500049F030F0823041F0833079F480B305C03B
:1011600089B303C086B301C083B390E002C09595F4
:1011700087952A95E2F78170089580E00895AA1B6B
:10118000BB1B51E107C0AA1FBB1FA617B70710F072
:10119000A61BB70B881F991F5A95A9F780959095A4
:1011A000BC01CD010895A1E21A2EAA1BBB1BFD01B3
:1011B0000DC0AA1FBB1FEE1FFF1FA217B307E40736
:1011C000F50720F0A21BB30BE40BF50B661F771F8E
:1011D000881F991F1A9469F760957095809590956E
:1011E0009B01AC01BD01CF010895052E97FB1EF4B4
:1011F00000940E940C0957FD07D00E94D30807FCF9
:1012000003D04EF40C940C095095409530952195DF
:101210003F4F4F4F5F4F0895909580957095619522
:101220007F4F8F4F9F4F08950E941F09A59F900DDC
:10123000B49F900DA49F800D911D11240895A29F2D
:10124000B001B39FC001A39F700D811D1124911D9A
:10125000B29F700D811D1124911D0895F894FFCF48
:101260005D5C5B5A3132334134353642373839436D
:10127000463045442D57656C636F6D6520746F2D46
:1012800000442D436F6E766572746572002D42794D
:101290002D0041686D65642053656465656B002DA4
:1012A0004F7074696F6E732D00446563202D20426A
:1012B000696E202D20486578002D436F6E7665722B
:1012C000742046726F6D2D00446563207C20426956
:1012D0006E207C20486578002D436F6E76657274B1
:1012E00020546F2D005072657373206F7074696F96
:1012F0006E20746F0063686F6F73652E2E00436FEE
:101300006E76657274696E672066726F6D3A00441E
:101310006563696D616C2E00486578616465636919
:101320006D616C2E0042696E6172792E00436F6EA2
:1013300076657274696E6720746F3A004465633A2B
:1013400020004865783A200030780042696E3A20E3
:1013500000306200000000000000000000000000FB
:10136000020202020000000000000000020202026D
:041370000202020271
:00000001FF
