S01700004156525F4170706C69636174696F6E2E7372656351
S11300000C942A000C943F000C943F000C943F0085
S11300100C943F000C943F000C943F000C943F0060
S11300200C943F000C943F000C943F000C943F0050
S11300300C943F000C943F000C943F000C943F0040
S11300400C943F000C943F000C943F000C943F0030
S11300500C943F0011241FBECFE5D8E0DEBFCDBF16
S113006010E0A0E6B0E0ECEFF3E002C005900D92E2
S1130070A038B107D9F70E9467000C94FC010C94D6
S113008000006DEC869F612D1124962F9695969510
S11300909695990F292F220F220F920F891B982FC3
S11300A066956695669520E1929FC0011124682BA0
S11300B083E00E94EC0108950E947A0160E083E0ED
S11300C00E948A0160E082E00E948A0108950E94F1
S11300D05C00C0E0D0E00DC0CE010E9441002FEFD3
S11300E084E39CE0215080409040E1F700C0000090
S11300F02196C336D10584F3ECCF982F9695969527
S113010096958770613009F455C020F0623009F487
S1130110A1C008959130C1F028F0923039F19330A4
S1130120B9F108954AB321E030E0B90102C0660F85
S1130130771F8A95E2F7CB01942F982B9ABB9BB338
S1130140809589238BBB089547B321E030E0B90142
S113015002C0660F771F8A95E2F7CB01942F982B84
S113016097BB98B38095892388BB089544B321E055
S113017030E0B90102C0660F771F8A95E2F7CB0120
S1130180942F982B94BB95B38095892385BB0895B0
S113019041B321E030E0B90102C0660F771F8A95B0
S11301A0E2F7CB01942F982B91BB92B380958923CE
S11301B082BB08959130C1F028F0923039F1933028
S11301C0B9F108954AB321E030E0B90102C0660FE5
S11301D0771F8A95E2F7CB018095942F98239ABBD9
S11301E09BB389238BBB089547B321E030E0B90169
S11301F002C0660F771F8A95E2F7CB018095942F92
S1130200982397BB98B3892388BB089544B321E00E
S113021030E0B90102C0660F771F8A95E2F7CB017F
S11302208095942F982394BB95B3892385BB089517
S113023041B321E030E0B90102C0660F771F8A950F
S1130240E2F7CB018095942F982391BB92B3892335
S113025082BB08959130C1F028F0923039F1933087
S1130260B9F108954AB321E030E0B90102C0660F44
S1130270771F8A95E2F7CB01962F909594239ABB2A
S11302809BB3892B8BBB089547B321E030E0B901C0
S113029002C0660F771F8A95E2F7CB01962F9095DF
S11302A0942397BB98B3892B88BB089544B321E06A
S11302B030E0B90102C0660F771F8A95E2F7CB01DF
S11302C0962F9095942394BB95B3892B85BB089561
S11302D041B321E030E0B90102C0660F771F8A956F
S11302E0E2F7CB01962F9095942391BB92B3892B7F
S11302F082BB0895CF93C0E009C0EC2FF0E0E05A30
S1130300FF4F60818C2F0E947D00CF5FC032A8F325
S1130310CF910895613021F118F06230E9F1089528
S1130320813061F028F0823079F0833099F00895BB
S11303308AB38FEF8ABB8BB31BBA089587B38FEF51
S113034087BB88B318BA089584B38FEF84BB85B391
S113035015BA089581B38FEF81BB82B312BA0895A1
S1130360813059F028F0823069F0833081F00895AB
S11303708AB31ABA8BB31BBA089587B317BA88B372
S113038018BA089584B314BA85B315BA089581B31D
S113039011BA82B312BA0895813061F028F0823024
S11303A079F0833099F008958AB31ABA8BB38FEF3A
S11303B08BBB089587B317BA88B38FEF88BB0895B2
S11303C084B314BA85B38FEF85BB089581B311BA92
S11303D082B38FEF82BB0895813041F028F08230E0
S11303E039F0833039F008956BBB089568BB0895E4
S10F03F065BB089562BB0895F894FFCF2C
S11303FC00000000000002010000000000020000E8
S113040C00000000000000000000000000000000DC
S9030000FC
