:100000000C942A000C943F000C943F000C943F0089
:100010000C943F000C943F000C943F000C943F0064
:100020000C943F000C943F000C943F000C943F0054
:100030000C943F000C943F000C943F000C943F0044
:100040000C943F000C943F000C943F000C943F0034
:100050000C943F0011241FBECFE5D8E0DEBFCDBF1A
:1000600010E0A0E6B0E0E2EBF2E002C005900D92F5
:10007000A036B107D9F70E94D1000C9457010C9417
:10008000000060E080E10E94D60061E081E10E9412
:10009000D60060E082E10E94D60060E083E10E9429
:1000A000D6002FEF80E792E0215080409040E1F7AA
:1000B00000C00000089560E080E10E94D60060E08A
:1000C00081E10E94D60061E082E10E94D60060E0FA
:1000D00083E10E94D6002FEF80E792E0215080401C
:1000E0009040E1F700C00000089560E080E10E94C8
:1000F000D60060E081E10E94D60060E082E10E94CB
:10010000D60061E083E10E94D6002FEF80E792E005
:10011000215080409040E1F700C00000089561E068
:1001200080E10E94D60060E081E10E94D60060E09C
:1001300082E10E94D60060E083E10E94D6002FEFAA
:1001400080E792E0215080409040E1F700C000003D
:1001500008950F931F93CF938C01C0E080E02C2F64
:1001600030E020173107C8F4811104C00E9441001B
:1001700081E011C0813021F40E945B0082E00BC05D
:10018000823021F40E94750083E005C0833019F4A9
:100190000E948F0080E0CF5FE2CFCF911F910F913F
:1001A000089580E490E00E94A900FFCF982F9695D3
:1001B0009695969587706130C1F5913091F028F051
:1001C0009230D9F0933029F108954BB321E030E01B
:1001D000B90102C0660F771F8A95E2F7CB01842B25
:1001E0003AC048B321E030E0B90102C0660F771F82
:1001F0008A95E2F7CB01842B3CC045B321E030E087
:10020000B90102C0660F771F8A95E2F7CB01842BF4
:100210003EC042B321E030E0B90102C0660F771F53
:100220008A95E2F7CB01842B40C061113FC0913029
:10023000A1F028F09230F9F0933059F108954BB3C2
:1002400021E030E0B90102C0660F771F8A95E2F71E
:10025000CB01809584238BBB089548B321E030E027
:10026000B90102C0660F771F8A95E2F7CB0180952E
:10027000842388BB089545B321E030E0B90102C072
:10028000660F771F8A95E2F7CB018095842385BBA3
:10029000089542B321E030E0B90102C0660F771F34
:1002A0008A95E2F7CB018095842382BB0895F89468
:0202B000FFCF7E
:00000001FF
