S01700004156525F4170706C69636174696F6E2E7372656351
S11300000C942A000C943F000C943F000C943F0085
S11300100C943F000C943F000C943F000C943F0060
S11300200C943F000C943F000C943F000C943F0050
S11300300C943F000C943F000C943F000C943F0040
S11300400C943F000C943F000C943F000C943F0030
S11300500C943F0011241FBECFE5D8E0DEBFCDBF16
S113006010E0A0E6B0E0E2EDF9E002C005900D92E8
S1130070AE39B107D9F70E9408020C94E7040C9436
S11300800000CF93C82F60E081E00E9425046C2F0C
S1130090661F6627661F86E00E942504C6FB662746
S11300A060F985E00E942504C5FB662760F984E0B9
S11300B00E942504C4FB662760F983E00E9425049E
S11300C061E082E00E9425048FEC97E00197F1F74C
S11300D000C0000060E082E00E9425048FEC97E0FD
S11300E00197F1F700C00000C3FB662760F986E0C2
S11300F00E942504C2FB662760F985E00E9425045E
S1130100C1FB662760F984E00E9425046C2F6170AE
S113011083E00E94250461E082E00E9425048FECC4
S113012097E00197F1F700C0000060E082E00E94D0
S113013025048FEC97E00197F1F700C00000CF9100
S11301400895CF93C82F61E081E00E9425046C2FAD
S1130150661F6627661F86E00E942504C6FB662785
S113016060F985E00E942504C5FB662760F984E0F8
S11301700E942504C4FB662760F983E00E942504DD
S113018061E082E00E9425048FEC97E00197F1F78B
S113019000C0000060E082E00E9425048FEC97E03C
S11301A00197F1F700C00000C3FB662760F986E001
S11301B00E942504C2FB662760F985E00E9425049D
S11301C0C1FB662760F984E00E9425046C2F6170EE
S11301D083E00E94250461E082E00E9425048FEC04
S11301E097E00197F1F700C0000060E082E00E9410
S11301F025048FEC97E00197F1F700C00000CF9140
S113020008952FE788E391E0215080409040E1F782
S113021000C0000082E00E94410088E20E94410088
S11302208CE00E94410081E00E9441008FEC97E045
S11302300197F1F700C0000086E00C9441000F9391
S11302401F93CF938C01C0E0F801EC0FF11D808166
S1130250882321F00E94A100CF5FF6CFCF911F9198
S11302600F9108954F925F926F927F92AF92BF92D7
S1130270CF92DF92EF92FF921F93CF93DF93CDB78C
S1130280DEB764970FB6F894DEBF0FBECDBF6B0127
S11302907C016115710581059105B1F480E36496D3
S11302A00FB6F894DEBF0FBECDBFDF91CF911F9183
S11302B0FF90EF90DF90CF90BF90AF907F906F90C2
S11302C05F904F900C94A10097FF0BC0F094E094C2
S11302D0D094C094C11CD11CE11CF11C8DE20E947D
S11302E0A10010E09AE0492E512C612C712CAA2413
S11302F0A394B12CAC0EBD1EA10EB11CC701B60156
S1130300A30192010E94C804605DF5016083690144
S11303107A0181E0810FC114D104E104F10411F0E8
S1130320182FE5CFF12EF7FC0DC0E1E0F0E0EC0F63
S1130330FD1FEF0DF11DF7FCFA9580810E94A100CD
S1130340FA94F1CF64960FB6F894DEBF0FBECDBF1A
S1130350DF91CF911F91FF90EF90DF90CF90BF90EE
S1130360AF907F906F905F904F900895811102C07D
S113037080E803C0813021F480EC860F0C944100A6
S11303800895CF93DF93FC01892B69F0808180323B
S113039050F4EF0160E00E94210360E088810E9434
S11303A0250481E001C080E0DF91CF91089500979A
S11303B049F0FC018081803228F461E00E94250428
S11303C081E0089580E00895009749F0FC01808160
S11303D0803228F460E00E94250481E0089580E0E2
S11303E00895CF93DF930E9412040E94010166E0F6
S11303F081E00E94FF02C0E6D0E0CE010E94C1016C
S1130400229680E0C037D807C1F7DF91CF910895D5
S11304100E94F10160E080E00E94B60180E790E074
S11304200E941F0187E00E941503EC0160E081E057
S11304300E94B601BE0180E090E00E943201CE012C
S1130440805593408038910548F480E690E00E94FE
S1130450D70182E690E00E94E4010EC0CE01875DE0
S1130460924089379105E8F480E690E00E94D70134
S113047082E690E00E94D70184E690E00E94E401C5
S113048086E690E00E94E40188E690E00E94E401A0
S11304908AE690E00E94E4018CE690E00E94E40188
S11304A084C0CE018E5592408937910568F480E668
S11304B090E00E94D70182E690E00E94D70184E692
S11304C090E00E94D701DCCFCE01855E9140893750
S11304D0910588F480E690E00E94D70182E690E0DE
S11304E00E94D70184E690E00E94D70186E690E05E
S11304F00E94D701C9CFCE0181599140843591051D
S1130500A8F480E690E00E94D70182E690E00E9481
S1130510D70184E690E00E94D70186E690E00E942D
S1130520D70188E690E00E94D701B2CFCE01895668
S113053091408897C8F480E690E00E94D70182E653
S113054090E00E94D70184E690E00E94D70186E6FD
S113055090E00E94D70188E690E00E94D7018AE6E5
S113056090E00E94D70198CFCE01815491408897A2
S113057008F580E690E00E94D70182E690E00E94B0
S1130580D70184E690E00E94D70186E690E00E94BD
S1130590D70188E690E00E94D7018AE690E00E94A5
S11305A0D7018CE690E00E94D7018EE690E00E948D
S11305B0E40138CFC134D14008F034CF80E690E074
S11305C00E94D70182E690E00E94D70184E690E081
S11305D00E94D70186E690E00E94D70188E690E069
S11305E00E94D7018AE690E00E94D7018CE690E051
S11305F00E94D7018EE690E00E94D70113CF81308C
S113060041F020F0833039F43F9A04C03F983E987B
S113061002C03F983E9A3D9886B1887F86B986B1DC
S11306206770682B66B9379A089597B1907E97B929
S113063097B1892B87B9369A3699FECF84B195B193
S11306400895982F9695969596958770613009F43C
S11306504DC020F0623009F496C008959130B1F095
S113066028F0923019F1933089F108954AB321E0CA
S113067030E0B90102C0660F771F8A95E2F7CB011B
S1130680942F982B9ABB9BB3809547C047B321E026
S113069030E0B90102C0660F771F8A95E2F7CB01FB
S11306A0942F982B97BB98B3809549C044B321E00D
S11306B030E0B90102C0660F771F8A95E2F7CB01DB
S11306C0942F982B94BB95B380954AC041B321E0F5
S11306D030E0B90102C0660F771F8A95E2F7CB01BB
S11306E0942F982B91BB92B380954BC09130C1F05D
S11306F028F0923031F19330A9F108954AB321E002
S113070030E0B90102C0660F771F8A95E2F7CB018A
S11307108095942F98239ABB9BB389238BBB089510
S113072047B321E030E0B90102C0660F771F8A9514
S1130730E2F7CB018095942F982397BB98B3892334
S11307404BC044B321E030E0B90102C0660F771F0B
S11307508A95E2F7CB018095942F982394BB95B3A7
S113076089234CC041B321E030E0B90102C0660FD7
S1130770771F8A95E2F7CB018095942F982391BB3C
S113078092B389234DC09130B9F028F0923031F101
S11307909330B1F108954AB321E030E0B90102C0C9
S11307A0660F771F8A95E2F7CB01962F90959423D5
S11307B09ABB9BB3892BB2CF47B321E030E0B90198
S11307C002C0660F771F8A95E2F7CB01962F9095AA
S11307D0942397BB98B3892B88BB089544B321E035
S11307E030E0B90102C0660F771F8A95E2F7CB01AA
S11307F0962F9095942394BB95B3892B85BB08952C
S113080041B321E030E0B90102C0660F771F8A9539
S1130810E2F7CB01962F9095942391BB92B3892B49
S113082082BB08950F931F93CF930DE710E0C0E0B0
S1130830F80161918F018C2F0E942103CF5FC03298
S1130840B9F7CF911F910F910895982F969596958A
S1130850969587706130C1F5913091F028F092300F
S1130860D9F0933029F108954BB321E030E0B90178
S113087002C0660F771F8A95E2F7CB01842B3AC03A
S113088048B321E030E0B90102C0660F771F8A95B2
S1130890E2F7CB01842B3CC045B321E030E0B90141
S11308A002C0660F771F8A95E2F7CB01842B3EC006
S11308B042B321E030E0B90102C0660F771F8A9588
S11308C0E2F7CB01842B40C061113FC09130A1F00D
S11308D028F09230F9F0933059F108954BB321E0A8
S11308E030E0B90102C0660F771F8A95E2F7CB01A9
S11308F0809584238BBB089548B321E030E0B9018F
S113090002C0660F771F8A95E2F7CB018095842396
S113091088BB089545B321E030E0B90102C0660FF9
S1130920771F8A95E2F7CB018095842385BB0895D0
S113093042B321E030E0B90102C0660F771F8A9507
S1130940E2F7CB018095842382BB0895A1E21A2E9D
S1130950AA1BBB1BFD010DC0AA1FBB1FEE1FFF1F5F
S1130960A217B307E407F50720F0A21BB30BE40BAF
S1130970F50B661F771F881F991F1A9469F76095F6
S11309807095809590959B01AC01BD01CF010895B0
S1130990052E97FB1EF400940E94DF0457FD07D038
S11309A00E94A60407FC03D04EF40C94DF04509577
S11309B04095309521953F4F4F4F5F4F0895909547
S11309C08095709561957F4F8F4F9F4F0895F89450
S10509D0FFCF53
S11309D2180019001A001B001C001D001E001F0035
S11309E24144432052656164696E673A0001000024
S11309F200000000010000000002020202000000E8
S1110A020000000000000000000000000000E2
S9030000FC
