:100000000C942A000C943F000C943F000C943F0089
:100010000C943F000C943F000C943F000C943F0064
:100020000C943F000C943F000C943F000C943F0054
:100030000C943F000C943F000C943F000C943F0044
:100040000C943F000C943F000C943F000C943F0034
:100050000C943F0011241FBECFE5D8E0DEBFCDBF1A
:1000600010E0A0E6B0E0E8E5FAE002C005900D92ED
:10007000A63BB107D9F70E944E020C942A050C94B6
:100080000000CF93C82F60E081E00E9445046C2FF0
:10009000661F6627661F86E00E944504C6FB66272A
:1000A00060F985E00E944504C5FB662760F984E09D
:1000B0000E944504C4FB662760F983E00E94450462
:1000C00061E082E00E9445048FEC97E00197F1F730
:1000D00000C0000060E082E00E9445048FEC97E0E1
:1000E0000197F1F700C00000C3FB662760F986E0C6
:1000F0000E944504C2FB662760F985E00E94450422
:10010000C1FB662760F984E00E9445046C2F617092
:1001100083E00E94450461E082E00E9445048FEC88
:1001200097E00197F1F700C0000060E082E00E94D4
:1001300045048FEC97E00197F1F700C00000CF91E4
:100140000895CF93C82F61E081E00E9445046C2F91
:10015000661F6627661F86E00E944504C6FB662769
:1001600060F985E00E944504C5FB662760F984E0DC
:100170000E944504C4FB662760F983E00E944504A1
:1001800061E082E00E9445048FEC97E00197F1F76F
:1001900000C0000060E082E00E9445048FEC97E020
:1001A0000197F1F700C00000C3FB662760F986E005
:1001B0000E944504C2FB662760F985E00E94450461
:1001C000C1FB662760F984E00E9445046C2F6170D2
:1001D00083E00E94450461E082E00E9445048FECC8
:1001E00097E00197F1F700C0000060E082E00E9414
:1001F00045048FEC97E00197F1F700C00000CF9124
:1002000008952FE788E391E0215080409040E1F786
:1002100000C0000082E00E94410088E20E9441008C
:100220008CE00E94410081E00E9441008FEC97E049
:100230000197F1F700C0000086E00C9441000C9497
:10024000A1000F931F93CF938C01C0E0F801EC0F36
:10025000F11D8081882321F00E94A100CF5FF6CF9D
:10026000CF911F910F9108954F925F926F927F925D
:10027000AF92BF92CF92DF92EF92FF921F93CF93F4
:10028000DF93CDB7DEB764970FB6F894DEBF0FBE2D
:10029000CDBF6B017C016115710581059105B1F43C
:1002A00080E364960FB6F894DEBF0FBECDBFDF913A
:1002B000CF911F91FF90EF90DF90CF90BF90AF90C4
:1002C0007F906F905F904F900C94A10097FF0BC0B0
:1002D000F094E094D094C094C11CD11CE11CF11C9A
:1002E0008DE20E94A10010E09AE0492E512C612C71
:1002F000712CAA24A394B12CAC0EBD1EA10EB11C6E
:10030000C701B601A30192010E94FC04605DF501E2
:10031000608369017A0181E0810FC114D104E10495
:10032000F10411F0182FE5CFF12EF7FC0DC0E1E03C
:10033000F0E0EC0FFD1FEF0DF11DF7FCFA95808149
:100340000E94A100FA94F1CF64960FB6F894DEBF34
:100350000FBECDBFDF91CF911F91FF90EF90DF9047
:10036000CF90BF90AF907F906F905F904F90089527
:10037000811102C080E803C0813021F480EC860F37
:100380000C9441000895CF93DF93D42F0E94B801BD
:10039000C0E0CD1729F080E20E94A100CF5FF9CF25
:1003A000DF91CF910895CF93DF93EA010E94B801C6
:1003B000CE01DF91CF910C942101CF93DF93FC010B
:1003C000892B69F08081803250F4EF0160E00E9457
:1003D000410360E088810E94450481E001C080E023
:1003E000DF91CF910895009749F0FC018081803220
:1003F00028F461E00E94450481E0089580E00895BA
:10040000009749F0FC018081803228F460E00E946E
:10041000450481E0089580E0089561E080E10E9454
:10042000450460E081E10C94450460E080E10E94B5
:10043000450460E081E10C944504882319F0813083
:1004400019F008950C940D0261E082E10E944504C8
:1004500060E083E10C944504882319F0813019F0A1
:1004600008950C94150260E082E10E94450460E06A
:1004700083E10C94450487E00C9430030E9432041D
:100480000E94010166E081E00E940E0380E690E098
:100490000E94DD0182E690E00C94DD010E943E02A4
:1004A00044E650E060E080E00E94D301F12C0AE0D5
:1004B00010E00E943B02B8010E94C604C62F6C01E6
:1004C00062E080E00E94B8016C2F70E080E090E074
:1004D0000E9434018EE20E941F01B60180E090E08C
:1004E0000E943401C332E8F44EE061E081E00E94F2
:1004F000C30147E650E065E081E00E94D3014AE095
:1005000066E080E00E94C30182E690E00E94000263
:1005100080E690E00E94000260E084E10E944504D1
:1005200078C0C3524EE650E066E080E0CE31C8F5B8
:10053000F11037C00E94D30180E00E942403EC0137
:1005400041E750E068E080E00E94D3016DE080E088
:100550000E94B801BE0180E090E00E9434014EE0AC
:1005600061E081E00E94C30147E750E061E081E083
:100570000E94D30182E690E00E94F30180E690E0C1
:100580000E94000281E00E942C0260E085E10E944E
:100590004504FF24F394C230D34008F08ACFF12CF5
:1005A00088CF0E94D30180E00E942403EC0141E740
:1005B00050E068E080E00E94D3016DE080E00E949E
:1005C000B801BE0180E090E00E9434014EE061E09D
:1005D00081E00E94C30146E850E061E081E00E94B2
:1005E000D30182E690E00E94000280E690E00E9443
:1005F000F30181E00E941D0261E085E10E94450453
:100600008FEF94E32CE0815090402040E1F700C050
:10061000000060E085E10E9445044BCF813041F04D
:1006200020F0833039F43F9A04C03F983E9802C0CE
:100630003F983E9A3D9886B1887F86B986B16770AB
:10064000682B66B9379A089597B1907E97B997B19C
:10065000892B87B9369A3699FECF84B195B1089522
:100660000E9424039C01A8E8B3E10E941B05DC0161
:10067000CB012AE0B695A795979587952A95D1F74E
:100680000895982F9695969596958770613009F400
:100690004DC020F0623009F496C008959130B1F059
:1006A00028F0923019F1933089F108954AB321E08E
:1006B00030E0B90102C0660F771F8A95E2F7CB01DF
:1006C000942F982B9ABB9BB3809547C047B321E0EA
:1006D00030E0B90102C0660F771F8A95E2F7CB01BF
:1006E000942F982B97BB98B3809549C044B321E0D1
:1006F00030E0B90102C0660F771F8A95E2F7CB019F
:10070000942F982B94BB95B380954AC041B321E0B8
:1007100030E0B90102C0660F771F8A95E2F7CB017E
:10072000942F982B91BB92B380954BC09130C1F020
:1007300028F0923031F19330A9F108954AB321E0C5
:1007400030E0B90102C0660F771F8A95E2F7CB014E
:100750008095942F98239ABB9BB389238BBB0895D4
:1007600047B321E030E0B90102C0660F771F8A95D8
:10077000E2F7CB018095942F982397BB98B38923F8
:100780004BC044B321E030E0B90102C0660F771FCF
:100790008A95E2F7CB018095942F982394BB95B36B
:1007A00089234CC041B321E030E0B90102C0660F9B
:1007B000771F8A95E2F7CB018095942F982391BB00
:1007C00092B389234DC09130B9F028F0923031F1C5
:1007D0009330B1F108954AB321E030E0B90102C08D
:1007E000660F771F8A95E2F7CB01962F9095942399
:1007F0009ABB9BB3892BB2CF47B321E030E0B9015C
:1008000002C0660F771F8A95E2F7CB01962F90956D
:10081000942397BB98B3892B88BB089544B321E0F8
:1008200030E0B90102C0660F771F8A95E2F7CB016D
:10083000962F9095942394BB95B3892B85BB0895EF
:1008400041B321E030E0B90102C0660F771F8A95FD
:10085000E2F7CB01962F9095942391BB92B3892B0D
:1008600082BB08950F931F93CF9305E910E0C0E07A
:10087000F80161918F018C2F0E944103CF5FC0323C
:10088000B9F7CF911F910F910895982F969596954E
:10089000969587706130C1F5913091F028F09230D3
:1008A000D9F0933029F108954BB321E030E0B9013C
:1008B00002C0660F771F8A95E2F7CB01842B3AC0FE
:1008C00048B321E030E0B90102C0660F771F8A9576
:1008D000E2F7CB01842B3CC045B321E030E0B90105
:1008E00002C0660F771F8A95E2F7CB01842B3EC0CA
:1008F00042B321E030E0B90102C0660F771F8A954C
:10090000E2F7CB01842B40C061113FC09130A1F0D0
:1009100028F09230F9F0933059F108954BB321E06B
:1009200030E0B90102C0660F771F8A95E2F7CB016C
:10093000809584238BBB089548B321E030E0B90152
:1009400002C0660F771F8A95E2F7CB01809584235A
:1009500088BB089545B321E030E0B90102C0660FBD
:10096000771F8A95E2F7CB018095842385BB089594
:1009700042B321E030E0B90102C0660F771F8A95CB
:10098000E2F7CB018095842382BB0895AA1BBB1B91
:1009900051E107C0AA1FBB1FA617B70710F0A61B7F
:1009A000B70B881F991F5A95A9F780959095BC01A0
:1009B000CD010895A1E21A2EAA1BBB1BFD010DC09B
:1009C000AA1FBB1FEE1FFF1FA217B307E407F507FF
:1009D00020F0A21BB30BE40BF50B661F771F881FDB
:1009E000991F1A9469F760957095809590959B0171
:1009F000AC01BD01CF010895052E97FB1EF40094B4
:100A00000E94130557FD07D00E94DA0407FC03D0AB
:100A10004EF40C94130550954095309521953F4F19
:100A20004F4F5F4F089590958095709561957F4FDA
:100A30008F4F9F4F0895A29FB001B39FC001A39F06
:100A4000700D811D1124911DB29F700D811D112407
:080A5000911D0895F894FFCFF9
:100A580011001000543A002D436F6F6C2D002A2AA4
:100A680000536D6F6B3A002D4865617420576172B1
:100A78006E696E672D002D46697265205761726E2A
:100A8800696E672D000100000000000001000000F1
:100A98000002020202000000000000000000000046
:060AA80000000000000048
:00000001FF
